{
  "_format": "hh-sol-artifact-1",
  "contractName": "RoboPunksNFT",
  "sourceName": "contracts/RoboPunksNFT.sol",
  "abi": [
    {
      "inputs": [],
      "stateMutability": "payable",
      "type": "constructor"
    },
    {
      "anonymous": false,
      "inputs": [
        {
          "indexed": true,
          "internalType": "address",
          "name": "owner",
          "type": "address"
        },
        {
          "indexed": true,
          "internalType": "address",
          "name": "approved",
          "type": "address"
        },
        {
          "indexed": true,
          "internalType": "uint256",
          "name": "tokenId",
          "type": "uint256"
        }
      ],
      "name": "Approval",
      "type": "event"
    },
    {
      "anonymous": false,
      "inputs": [
        {
          "indexed": true,
          "internalType": "address",
          "name": "owner",
          "type": "address"
        },
        {
          "indexed": true,
          "internalType": "address",
          "name": "operator",
          "type": "address"
        },
        {
          "indexed": false,
          "internalType": "bool",
          "name": "approved",
          "type": "bool"
        }
      ],
      "name": "ApprovalForAll",
      "type": "event"
    },
    {
      "anonymous": false,
      "inputs": [
        {
          "indexed": true,
          "internalType": "address",
          "name": "previousOwner",
          "type": "address"
        },
        {
          "indexed": true,
          "internalType": "address",
          "name": "newOwner",
          "type": "address"
        }
      ],
      "name": "OwnershipTransferred",
      "type": "event"
    },
    {
      "anonymous": false,
      "inputs": [
        {
          "indexed": true,
          "internalType": "address",
          "name": "from",
          "type": "address"
        },
        {
          "indexed": true,
          "internalType": "address",
          "name": "to",
          "type": "address"
        },
        {
          "indexed": true,
          "internalType": "uint256",
          "name": "tokenId",
          "type": "uint256"
        }
      ],
      "name": "Transfer",
      "type": "event"
    },
    {
      "inputs": [
        {
          "internalType": "address",
          "name": "to",
          "type": "address"
        },
        {
          "internalType": "uint256",
          "name": "tokenId",
          "type": "uint256"
        }
      ],
      "name": "approve",
      "outputs": [],
      "stateMutability": "nonpayable",
      "type": "function"
    },
    {
      "inputs": [
        {
          "internalType": "address",
          "name": "owner",
          "type": "address"
        }
      ],
      "name": "balanceOf",
      "outputs": [
        {
          "internalType": "uint256",
          "name": "",
          "type": "uint256"
        }
      ],
      "stateMutability": "view",
      "type": "function"
    },
    {
      "inputs": [],
      "name": "baseTokenUri",
      "outputs": [
        {
          "internalType": "string",
          "name": "",
          "type": "string"
        }
      ],
      "stateMutability": "view",
      "type": "function"
    },
    {
      "inputs": [
        {
          "internalType": "uint256",
          "name": "tokenId",
          "type": "uint256"
        }
      ],
      "name": "getApproved",
      "outputs": [
        {
          "internalType": "address",
          "name": "",
          "type": "address"
        }
      ],
      "stateMutability": "view",
      "type": "function"
    },
    {
      "inputs": [
        {
          "internalType": "address",
          "name": "owner",
          "type": "address"
        },
        {
          "internalType": "address",
          "name": "operator",
          "type": "address"
        }
      ],
      "name": "isApprovedForAll",
      "outputs": [
        {
          "internalType": "bool",
          "name": "",
          "type": "bool"
        }
      ],
      "stateMutability": "view",
      "type": "function"
    },
    {
      "inputs": [],
      "name": "isPublicMintEnabled",
      "outputs": [
        {
          "internalType": "bool",
          "name": "",
          "type": "bool"
        }
      ],
      "stateMutability": "view",
      "type": "function"
    },
    {
      "inputs": [],
      "name": "maxPerWallet",
      "outputs": [
        {
          "internalType": "uint256",
          "name": "",
          "type": "uint256"
        }
      ],
      "stateMutability": "view",
      "type": "function"
    },
    {
      "inputs": [],
      "name": "maxSupply",
      "outputs": [
        {
          "internalType": "uint256",
          "name": "",
          "type": "uint256"
        }
      ],
      "stateMutability": "view",
      "type": "function"
    },
    {
      "inputs": [
        {
          "internalType": "uint256",
          "name": "_quantity",
          "type": "uint256"
        }
      ],
      "name": "mint",
      "outputs": [],
      "stateMutability": "payable",
      "type": "function"
    },
    {
      "inputs": [],
      "name": "mintPrice",
      "outputs": [
        {
          "internalType": "uint256",
          "name": "",
          "type": "uint256"
        }
      ],
      "stateMutability": "view",
      "type": "function"
    },
    {
      "inputs": [],
      "name": "name",
      "outputs": [
        {
          "internalType": "string",
          "name": "",
          "type": "string"
        }
      ],
      "stateMutability": "view",
      "type": "function"
    },
    {
      "inputs": [],
      "name": "owner",
      "outputs": [
        {
          "internalType": "address",
          "name": "",
          "type": "address"
        }
      ],
      "stateMutability": "view",
      "type": "function"
    },
    {
      "inputs": [
        {
          "internalType": "uint256",
          "name": "tokenId",
          "type": "uint256"
        }
      ],
      "name": "ownerOf",
      "outputs": [
        {
          "internalType": "address",
          "name": "",
          "type": "address"
        }
      ],
      "stateMutability": "view",
      "type": "function"
    },
    {
      "inputs": [],
      "name": "renounceOwnership",
      "outputs": [],
      "stateMutability": "nonpayable",
      "type": "function"
    },
    {
      "inputs": [
        {
          "internalType": "address",
          "name": "from",
          "type": "address"
        },
        {
          "internalType": "address",
          "name": "to",
          "type": "address"
        },
        {
          "internalType": "uint256",
          "name": "tokenId",
          "type": "uint256"
        }
      ],
      "name": "safeTransferFrom",
      "outputs": [],
      "stateMutability": "nonpayable",
      "type": "function"
    },
    {
      "inputs": [
        {
          "internalType": "address",
          "name": "from",
          "type": "address"
        },
        {
          "internalType": "address",
          "name": "to",
          "type": "address"
        },
        {
          "internalType": "uint256",
          "name": "tokenId",
          "type": "uint256"
        },
        {
          "internalType": "bytes",
          "name": "_data",
          "type": "bytes"
        }
      ],
      "name": "safeTransferFrom",
      "outputs": [],
      "stateMutability": "nonpayable",
      "type": "function"
    },
    {
      "inputs": [
        {
          "internalType": "address",
          "name": "operator",
          "type": "address"
        },
        {
          "internalType": "bool",
          "name": "approved",
          "type": "bool"
        }
      ],
      "name": "setApprovalForAll",
      "outputs": [],
      "stateMutability": "nonpayable",
      "type": "function"
    },
    {
      "inputs": [
        {
          "internalType": "string",
          "name": "_baseTokenUri",
          "type": "string"
        }
      ],
      "name": "setBaseTokenUri",
      "outputs": [],
      "stateMutability": "nonpayable",
      "type": "function"
    },
    {
      "inputs": [
        {
          "internalType": "bool",
          "name": "_isPublicMintEnabled",
          "type": "bool"
        }
      ],
      "name": "setIsPublicMintEnabled",
      "outputs": [],
      "stateMutability": "nonpayable",
      "type": "function"
    },
    {
      "inputs": [
        {
          "internalType": "bytes4",
          "name": "interfaceId",
          "type": "bytes4"
        }
      ],
      "name": "supportsInterface",
      "outputs": [
        {
          "internalType": "bool",
          "name": "",
          "type": "bool"
        }
      ],
      "stateMutability": "view",
      "type": "function"
    },
    {
      "inputs": [],
      "name": "symbol",
      "outputs": [
        {
          "internalType": "string",
          "name": "",
          "type": "string"
        }
      ],
      "stateMutability": "view",
      "type": "function"
    },
    {
      "inputs": [
        {
          "internalType": "uint256",
          "name": "_tokenId",
          "type": "uint256"
        }
      ],
      "name": "tokenURI",
      "outputs": [
        {
          "internalType": "string",
          "name": "",
          "type": "string"
        }
      ],
      "stateMutability": "view",
      "type": "function"
    },
    {
      "inputs": [],
      "name": "totalSupply",
      "outputs": [
        {
          "internalType": "uint256",
          "name": "",
          "type": "uint256"
        }
      ],
      "stateMutability": "view",
      "type": "function"
    },
    {
      "inputs": [
        {
          "internalType": "address",
          "name": "from",
          "type": "address"
        },
        {
          "internalType": "address",
          "name": "to",
          "type": "address"
        },
        {
          "internalType": "uint256",
          "name": "tokenId",
          "type": "uint256"
        }
      ],
      "name": "transferFrom",
      "outputs": [],
      "stateMutability": "nonpayable",
      "type": "function"
    },
    {
      "inputs": [
        {
          "internalType": "address",
          "name": "newOwner",
          "type": "address"
        }
      ],
      "name": "transferOwnership",
      "outputs": [],
      "stateMutability": "nonpayable",
      "type": "function"
    },
    {
      "inputs": [
        {
          "internalType": "address",
          "name": "",
          "type": "address"
        }
      ],
      "name": "walletMints",
      "outputs": [
        {
          "internalType": "uint256",
          "name": "",
          "type": "uint256"
        }
      ],
      "stateMutability": "view",
      "type": "function"
    },
    {
      "inputs": [],
      "name": "withdraw",
      "outputs": [],
      "stateMutability": "nonpayable",
      "type": "function"
    },
    {
      "inputs": [],
      "name": "withdrawWallet",
      "outputs": [
        {
          "internalType": "address payable",
          "name": "",
          "type": "address"
        }
      ],
      "stateMutability": "view",
      "type": "function"
    }
  ],
  "bytecode": "0x60806040526040518060400160405280600c81526020017f526f626f50756e6b734e465400000000000000000000000000000000000000008152506040518060400160405280600281526020017f5250000000000000000000000000000000000000000000000000000000000000815250816000908051906020019062000088929190620001bf565b508060019080519060200190620000a1929190620001bf565b505050620000c4620000b8620000f160201b60201c565b620000f960201b60201c565b66470de4df82000060078190555060006008819055506103e86009819055506003600a81905550620002d4565b600033905090565b6000600660009054906101000a900473ffffffffffffffffffffffffffffffffffffffff16905081600660006101000a81548173ffffffffffffffffffffffffffffffffffffffff021916908373ffffffffffffffffffffffffffffffffffffffff1602179055508173ffffffffffffffffffffffffffffffffffffffff168173ffffffffffffffffffffffffffffffffffffffff167f8be0079c531659141344cd1fd0a4f28419497f9722a3daafe3b4186f6b6457e060405160405180910390a35050565b828054620001cd906200026f565b90600052602060002090601f016020900481019282620001f157600085556200023d565b82601f106200020c57805160ff19168380011785556200023d565b828001600101855582156200023d579182015b828111156200023c5782518255916020019190600101906200021f565b5b5090506200024c919062000250565b5090565b5b808211156200026b57600081600090555060010162000251565b5090565b600060028204905060018216806200028857607f821691505b602082108114156200029f576200029e620002a5565b5b50919050565b7f4e487b7100000000000000000000000000000000000000000000000000000000600052602260045260246000fd5b61386780620002e46000396000f3fe6080604052600436106101b75760003560e01c8063715018a6116100ec578063a22cb4651161008a578063d5abeb0111610064578063d5abeb01146105d9578063e985e9c514610604578063f0293fd314610641578063f2fde38b1461067e576101b7565b8063a22cb4651461054a578063b88d4fde14610573578063c87b56dd1461059c576101b7565b80638da5cb5b116100c65780638da5cb5b146104af57806395652cfa146104da57806395d89b4114610503578063a0712d681461052e576101b7565b8063715018a6146104425780637a0101a21461045957806385d178f414610484576101b7565b806323b872dd11610159578063453c231011610133578063453c2310146103725780636352211e1461039d5780636817c76c146103da57806370a0823114610405576101b7565b806323b872dd146103095780633ccfd60b1461033257806342842e0e14610349576101b7565b8063081812fc11610195578063081812fc1461024f578063095ea7b31461028c57806318160ddd146102b55780632373ac22146102e0576101b7565b80630116bc2d146101bc57806301ffc9a7146101e757806306fdde0314610224575b600080fd5b3480156101c857600080fd5b506101d16106a7565b6040516101de9190612b72565b60405180910390f35b3480156101f357600080fd5b5061020e60048036038101906102099190612569565b6106ba565b60405161021b9190612b72565b60405180910390f35b34801561023057600080fd5b5061023961079c565b6040516102469190612b8d565b60405180910390f35b34801561025b57600080fd5b5061027660048036038101906102719190612600565b61082e565b6040516102839190612af0565b60405180910390f35b34801561029857600080fd5b506102b360048036038101906102ae9190612504565b6108b3565b005b3480156102c157600080fd5b506102ca6109cb565b6040516102d79190612e4f565b60405180910390f35b3480156102ec57600080fd5b5061030760048036038101906103029190612540565b6109d1565b005b34801561031557600080fd5b50610330600480360381019061032b91906123fe565b610a6a565b005b34801561033e57600080fd5b50610347610aca565b005b34801561035557600080fd5b50610370600480360381019061036b91906123fe565b610c17565b005b34801561037e57600080fd5b50610387610c37565b6040516103949190612e4f565b60405180910390f35b3480156103a957600080fd5b506103c460048036038101906103bf9190612600565b610c3d565b6040516103d19190612af0565b60405180910390f35b3480156103e657600080fd5b506103ef610cef565b6040516103fc9190612e4f565b60405180910390f35b34801561041157600080fd5b5061042c60048036038101906104279190612399565b610cf5565b6040516104399190612e4f565b60405180910390f35b34801561044e57600080fd5b50610457610dad565b005b34801561046557600080fd5b5061046e610e35565b60405161047b9190612b8d565b60405180910390f35b34801561049057600080fd5b50610499610ec3565b6040516104a69190612b0b565b60405180910390f35b3480156104bb57600080fd5b506104c4610ee9565b6040516104d19190612af0565b60405180910390f35b3480156104e657600080fd5b5061050160048036038101906104fc91906125bb565b610f13565b005b34801561050f57600080fd5b50610518610fa5565b6040516105259190612b8d565b60405180910390f35b61054860048036038101906105439190612600565b611037565b005b34801561055657600080fd5b50610571600480360381019061056c91906124c8565b61120e565b005b34801561057f57600080fd5b5061059a6004803603810190610595919061244d565b611224565b005b3480156105a857600080fd5b506105c360048036038101906105be9190612600565b611286565b6040516105d09190612b8d565b60405180910390f35b3480156105e557600080fd5b506105ee611302565b6040516105fb9190612e4f565b60405180910390f35b34801561061057600080fd5b5061062b600480360381019061062691906123c2565b611308565b6040516106389190612b72565b60405180910390f35b34801561064d57600080fd5b5061066860048036038101906106639190612399565b61139c565b6040516106759190612e4f565b60405180910390f35b34801561068a57600080fd5b506106a560048036038101906106a09190612399565b6113b4565b005b600b60009054906101000a900460ff1681565b60007f80ac58cd000000000000000000000000000000000000000000000000000000007bffffffffffffffffffffffffffffffffffffffffffffffffffffffff1916827bffffffffffffffffffffffffffffffffffffffffffffffffffffffff1916148061078557507f5b5e139f000000000000000000000000000000000000000000000000000000007bffffffffffffffffffffffffffffffffffffffffffffffffffffffff1916827bffffffffffffffffffffffffffffffffffffffffffffffffffffffff1916145b806107955750610794826114ac565b5b9050919050565b6060600080546107ab90613100565b80601f01602080910402602001604051908101604052809291908181526020018280546107d790613100565b80156108245780601f106107f957610100808354040283529160200191610824565b820191906000526020600020905b81548152906001019060200180831161080757829003601f168201915b5050505050905090565b600061083982611516565b610878576040517f08c379a000000000000000000000000000000000000000000000000000000000815260040161086f90612daf565b60405180910390fd5b6004600083815260200190815260200160002060009054906101000a900473ffffffffffffffffffffffffffffffffffffffff169050919050565b60006108be82610c3d565b90508073ffffffffffffffffffffffffffffffffffffffff168373ffffffffffffffffffffffffffffffffffffffff16141561092f576040517f08c379a000000000000000000000000000000000000000000000000000000000815260040161092690612def565b60405180910390fd5b8073ffffffffffffffffffffffffffffffffffffffff1661094e611582565b73ffffffffffffffffffffffffffffffffffffffff16148061097d575061097c81610977611582565b611308565b5b6109bc576040517f08c379a00000000000000000000000000000000000000000000000000000000081526004016109b390612d0f565b60405180910390fd5b6109c6838361158a565b505050565b60085481565b6109d9611582565b73ffffffffffffffffffffffffffffffffffffffff166109f7610ee9565b73ffffffffffffffffffffffffffffffffffffffff1614610a4d576040517f08c379a0000000000000000000000000000000000000000000000000000000008152600401610a4490612dcf565b60405180910390fd5b80600b60006101000a81548160ff02191690831515021790555050565b610a7b610a75611582565b82611643565b610aba576040517f08c379a0000000000000000000000000000000000000000000000000000000008152600401610ab190612e0f565b60405180910390fd5b610ac5838383611721565b505050565b610ad2611582565b73ffffffffffffffffffffffffffffffffffffffff16610af0610ee9565b73ffffffffffffffffffffffffffffffffffffffff1614610b46576040517f08c379a0000000000000000000000000000000000000000000000000000000008152600401610b3d90612dcf565b60405180910390fd5b6000600d60009054906101000a900473ffffffffffffffffffffffffffffffffffffffff1673ffffffffffffffffffffffffffffffffffffffff1647604051610b8e90612adb565b60006040518083038185875af1925050503d8060008114610bcb576040519150601f19603f3d011682016040523d82523d6000602084013e610bd0565b606091505b5050905080610c14576040517f08c379a0000000000000000000000000000000000000000000000000000000008152600401610c0b90612e2f565b60405180910390fd5b50565b610c3283838360405180602001604052806000815250611224565b505050565b600a5481565b6000806002600084815260200190815260200160002060009054906101000a900473ffffffffffffffffffffffffffffffffffffffff169050600073ffffffffffffffffffffffffffffffffffffffff168173ffffffffffffffffffffffffffffffffffffffff161415610ce6576040517f08c379a0000000000000000000000000000000000000000000000000000000008152600401610cdd90612d4f565b60405180910390fd5b80915050919050565b60075481565b60008073ffffffffffffffffffffffffffffffffffffffff168273ffffffffffffffffffffffffffffffffffffffff161415610d66576040517f08c379a0000000000000000000000000000000000000000000000000000000008152600401610d5d90612d2f565b60405180910390fd5b600360008373ffffffffffffffffffffffffffffffffffffffff1673ffffffffffffffffffffffffffffffffffffffff168152602001908152602001600020549050919050565b610db5611582565b73ffffffffffffffffffffffffffffffffffffffff16610dd3610ee9565b73ffffffffffffffffffffffffffffffffffffffff1614610e29576040517f08c379a0000000000000000000000000000000000000000000000000000000008152600401610e2090612dcf565b60405180910390fd5b610e336000611988565b565b600c8054610e4290613100565b80601f0160208091040260200160405190810160405280929190818152602001828054610e6e90613100565b8015610ebb5780601f10610e9057610100808354040283529160200191610ebb565b820191906000526020600020905b815481529060010190602001808311610e9e57829003601f168201915b505050505081565b600d60009054906101000a900473ffffffffffffffffffffffffffffffffffffffff1681565b6000600660009054906101000a900473ffffffffffffffffffffffffffffffffffffffff16905090565b610f1b611582565b73ffffffffffffffffffffffffffffffffffffffff16610f39610ee9565b73ffffffffffffffffffffffffffffffffffffffff1614610f8f576040517f08c379a0000000000000000000000000000000000000000000000000000000008152600401610f8690612dcf565b60405180910390fd5b8181600c9190610fa09291906121db565b505050565b606060018054610fb490613100565b80601f0160208091040260200160405190810160405280929190818152602001828054610fe090613100565b801561102d5780601f106110025761010080835404028352916020019161102d565b820191906000526020600020905b81548152906001019060200180831161101057829003601f168201915b5050505050905090565b600b60009054906101000a900460ff16611086576040517f08c379a000000000000000000000000000000000000000000000000000000000815260040161107d90612bcf565b60405180910390fd5b600754816110949190612faa565b34146110d5576040517f08c379a00000000000000000000000000000000000000000000000000000000081526004016110cc90612c6f565b60405180910390fd5b600954816008546110e69190612f23565b1115611127576040517f08c379a000000000000000000000000000000000000000000000000000000000815260040161111e90612cef565b60405180910390fd5b600a5481600e60003373ffffffffffffffffffffffffffffffffffffffff1673ffffffffffffffffffffffffffffffffffffffff168152602001908152602001600020546111759190612f23565b11156111b6576040517f08c379a00000000000000000000000000000000000000000000000000000000081526004016111ad90612d8f565b60405180910390fd5b60005b8181101561120a57600060016008546111d29190612f23565b9050600860008154809291906111e790613163565b91905055506111f63382611a4e565b50808061120290613163565b9150506111b9565b5050565b611220611219611582565b8383611a6c565b5050565b61123561122f611582565b83611643565b611274576040517f08c379a000000000000000000000000000000000000000000000000000000000815260040161126b90612e0f565b60405180910390fd5b61128084848484611bd9565b50505050565b606061129182611516565b6112d0576040517f08c379a00000000000000000000000000000000000000000000000000000000081526004016112c790612c4f565b60405180910390fd5b600c6112db83611c35565b6040516020016112ec929190612aac565b6040516020818303038152906040529050919050565b60095481565b6000600560008473ffffffffffffffffffffffffffffffffffffffff1673ffffffffffffffffffffffffffffffffffffffff16815260200190815260200160002060008373ffffffffffffffffffffffffffffffffffffffff1673ffffffffffffffffffffffffffffffffffffffff16815260200190815260200160002060009054906101000a900460ff16905092915050565b600e6020528060005260406000206000915090505481565b6113bc611582565b73ffffffffffffffffffffffffffffffffffffffff166113da610ee9565b73ffffffffffffffffffffffffffffffffffffffff1614611430576040517f08c379a000000000000000000000000000000000000000000000000000000000815260040161142790612dcf565b60405180910390fd5b600073ffffffffffffffffffffffffffffffffffffffff168173ffffffffffffffffffffffffffffffffffffffff1614156114a0576040517f08c379a000000000000000000000000000000000000000000000000000000000815260040161149790612bef565b60405180910390fd5b6114a981611988565b50565b60007f01ffc9a7000000000000000000000000000000000000000000000000000000007bffffffffffffffffffffffffffffffffffffffffffffffffffffffff1916827bffffffffffffffffffffffffffffffffffffffffffffffffffffffff1916149050919050565b60008073ffffffffffffffffffffffffffffffffffffffff166002600084815260200190815260200160002060009054906101000a900473ffffffffffffffffffffffffffffffffffffffff1673ffffffffffffffffffffffffffffffffffffffff1614159050919050565b600033905090565b816004600083815260200190815260200160002060006101000a81548173ffffffffffffffffffffffffffffffffffffffff021916908373ffffffffffffffffffffffffffffffffffffffff160217905550808273ffffffffffffffffffffffffffffffffffffffff166115fd83610c3d565b73ffffffffffffffffffffffffffffffffffffffff167f8c5be1e5ebec7d5bd14f71427d1e84f3dd0314c0f7b2291e5b200ac8c7c3b92560405160405180910390a45050565b600061164e82611516565b61168d576040517f08c379a000000000000000000000000000000000000000000000000000000000815260040161168490612ccf565b60405180910390fd5b600061169883610c3d565b90508073ffffffffffffffffffffffffffffffffffffffff168473ffffffffffffffffffffffffffffffffffffffff1614806116da57506116d98185611308565b5b8061171857508373ffffffffffffffffffffffffffffffffffffffff166117008461082e565b73ffffffffffffffffffffffffffffffffffffffff16145b91505092915050565b8273ffffffffffffffffffffffffffffffffffffffff1661174182610c3d565b73ffffffffffffffffffffffffffffffffffffffff1614611797576040517f08c379a000000000000000000000000000000000000000000000000000000000815260040161178e90612c0f565b60405180910390fd5b600073ffffffffffffffffffffffffffffffffffffffff168273ffffffffffffffffffffffffffffffffffffffff161415611807576040517f08c379a00000000000000000000000000000000000000000000000000000000081526004016117fe90612c8f565b60405180910390fd5b611812838383611de2565b61181d60008261158a565b6001600360008573ffffffffffffffffffffffffffffffffffffffff1673ffffffffffffffffffffffffffffffffffffffff168152602001908152602001600020600082825461186d9190613004565b925050819055506001600360008473ffffffffffffffffffffffffffffffffffffffff1673ffffffffffffffffffffffffffffffffffffffff16815260200190815260200160002060008282546118c49190612f23565b92505081905550816002600083815260200190815260200160002060006101000a81548173ffffffffffffffffffffffffffffffffffffffff021916908373ffffffffffffffffffffffffffffffffffffffff160217905550808273ffffffffffffffffffffffffffffffffffffffff168473ffffffffffffffffffffffffffffffffffffffff167fddf252ad1be2c89b69c2b068fc378daa952ba7f163c4a11628f55a4df523b3ef60405160405180910390a4611983838383611de7565b505050565b6000600660009054906101000a900473ffffffffffffffffffffffffffffffffffffffff16905081600660006101000a81548173ffffffffffffffffffffffffffffffffffffffff021916908373ffffffffffffffffffffffffffffffffffffffff1602179055508173ffffffffffffffffffffffffffffffffffffffff168173ffffffffffffffffffffffffffffffffffffffff167f8be0079c531659141344cd1fd0a4f28419497f9722a3daafe3b4186f6b6457e060405160405180910390a35050565b611a68828260405180602001604052806000815250611dec565b5050565b8173ffffffffffffffffffffffffffffffffffffffff168373ffffffffffffffffffffffffffffffffffffffff161415611adb576040517f08c379a0000000000000000000000000000000000000000000000000000000008152600401611ad290612caf565b60405180910390fd5b80600560008573ffffffffffffffffffffffffffffffffffffffff1673ffffffffffffffffffffffffffffffffffffffff16815260200190815260200160002060008473ffffffffffffffffffffffffffffffffffffffff1673ffffffffffffffffffffffffffffffffffffffff16815260200190815260200160002060006101000a81548160ff0219169083151502179055508173ffffffffffffffffffffffffffffffffffffffff168373ffffffffffffffffffffffffffffffffffffffff167f17307eab39ab6107e8899845ad3d59bd9653f200f220920489ca2b5937696c3183604051611bcc9190612b72565b60405180910390a3505050565b611be4848484611721565b611bf084848484611e47565b611c2f576040517f08c379a0000000000000000000000000000000000000000000000000000000008152600401611c2690612baf565b60405180910390fd5b50505050565b60606000821415611c7d576040518060400160405280600181526020017f30000000000000000000000000000000000000000000000000000000000000008152509050611ddd565b600082905060005b60008214611caf578080611c9890613163565b915050600a82611ca89190612f79565b9150611c85565b60008167ffffffffffffffff811115611cf1577f4e487b7100000000000000000000000000000000000000000000000000000000600052604160045260246000fd5b6040519080825280601f01601f191660200182016040528015611d235781602001600182028036833780820191505090505b5090505b60008514611dd657600182611d3c9190613004565b9150600a85611d4b91906131ac565b6030611d579190612f23565b60f81b818381518110611d93577f4e487b7100000000000000000000000000000000000000000000000000000000600052603260045260246000fd5b60200101907effffffffffffffffffffffffffffffffffffffffffffffffffffffffffffff1916908160001a905350600a85611dcf9190612f79565b9450611d27565b8093505050505b919050565b505050565b505050565b611df68383611fde565b611e036000848484611e47565b611e42576040517f08c379a0000000000000000000000000000000000000000000000000000000008152600401611e3990612baf565b60405180910390fd5b505050565b6000611e688473ffffffffffffffffffffffffffffffffffffffff166121b8565b15611fd1578373ffffffffffffffffffffffffffffffffffffffff1663150b7a02611e91611582565b8786866040518563ffffffff1660e01b8152600401611eb39493929190612b26565b602060405180830381600087803b158015611ecd57600080fd5b505af1925050508015611efe57506040513d601f19601f82011682018060405250810190611efb9190612592565b60015b611f81573d8060008114611f2e576040519150601f19603f3d011682016040523d82523d6000602084013e611f33565b606091505b50600081511415611f79576040517f08c379a0000000000000000000000000000000000000000000000000000000008152600401611f7090612baf565b60405180910390fd5b805181602001fd5b63150b7a0260e01b7bffffffffffffffffffffffffffffffffffffffffffffffffffffffff1916817bffffffffffffffffffffffffffffffffffffffffffffffffffffffff191614915050611fd6565b600190505b949350505050565b600073ffffffffffffffffffffffffffffffffffffffff168273ffffffffffffffffffffffffffffffffffffffff16141561204e576040517f08c379a000000000000000000000000000000000000000000000000000000000815260040161204590612d6f565b60405180910390fd5b61205781611516565b15612097576040517f08c379a000000000000000000000000000000000000000000000000000000000815260040161208e90612c2f565b60405180910390fd5b6120a360008383611de2565b6001600360008473ffffffffffffffffffffffffffffffffffffffff1673ffffffffffffffffffffffffffffffffffffffff16815260200190815260200160002060008282546120f39190612f23565b92505081905550816002600083815260200190815260200160002060006101000a81548173ffffffffffffffffffffffffffffffffffffffff021916908373ffffffffffffffffffffffffffffffffffffffff160217905550808273ffffffffffffffffffffffffffffffffffffffff16600073ffffffffffffffffffffffffffffffffffffffff167fddf252ad1be2c89b69c2b068fc378daa952ba7f163c4a11628f55a4df523b3ef60405160405180910390a46121b460008383611de7565b5050565b6000808273ffffffffffffffffffffffffffffffffffffffff163b119050919050565b8280546121e790613100565b90600052602060002090601f0160209004810192826122095760008555612250565b82601f1061222257803560ff1916838001178555612250565b82800160010185558215612250579182015b8281111561224f578235825591602001919060010190612234565b5b50905061225d9190612261565b5090565b5b8082111561227a576000816000905550600101612262565b5090565b600061229161228c84612e8f565b612e6a565b9050828152602081018484840111156122a957600080fd5b6122b48482856130be565b509392505050565b6000813590506122cb816137d5565b92915050565b6000813590506122e0816137ec565b92915050565b6000813590506122f581613803565b92915050565b60008151905061230a81613803565b92915050565b600082601f83011261232157600080fd5b813561233184826020860161227e565b91505092915050565b60008083601f84011261234c57600080fd5b8235905067ffffffffffffffff81111561236557600080fd5b60208301915083600182028301111561237d57600080fd5b9250929050565b6000813590506123938161381a565b92915050565b6000602082840312156123ab57600080fd5b60006123b9848285016122bc565b91505092915050565b600080604083850312156123d557600080fd5b60006123e3858286016122bc565b92505060206123f4858286016122bc565b9150509250929050565b60008060006060848603121561241357600080fd5b6000612421868287016122bc565b9350506020612432868287016122bc565b925050604061244386828701612384565b9150509250925092565b6000806000806080858703121561246357600080fd5b6000612471878288016122bc565b9450506020612482878288016122bc565b935050604061249387828801612384565b925050606085013567ffffffffffffffff8111156124b057600080fd5b6124bc87828801612310565b91505092959194509250565b600080604083850312156124db57600080fd5b60006124e9858286016122bc565b92505060206124fa858286016122d1565b9150509250929050565b6000806040838503121561251757600080fd5b6000612525858286016122bc565b925050602061253685828601612384565b9150509250929050565b60006020828403121561255257600080fd5b6000612560848285016122d1565b91505092915050565b60006020828403121561257b57600080fd5b6000612589848285016122e6565b91505092915050565b6000602082840312156125a457600080fd5b60006125b2848285016122fb565b91505092915050565b600080602083850312156125ce57600080fd5b600083013567ffffffffffffffff8111156125e857600080fd5b6125f48582860161233a565b92509250509250929050565b60006020828403121561261257600080fd5b600061262084828501612384565b91505092915050565b6126328161304a565b82525050565b61264181613038565b82525050565b6126508161305c565b82525050565b600061266182612ed5565b61266b8185612eeb565b935061267b8185602086016130cd565b61268481613299565b840191505092915050565b600061269a82612ee0565b6126a48185612f07565b93506126b48185602086016130cd565b6126bd81613299565b840191505092915050565b60006126d382612ee0565b6126dd8185612f18565b93506126ed8185602086016130cd565b80840191505092915050565b6000815461270681613100565b6127108186612f18565b9450600182166000811461272b576001811461273c5761276f565b60ff1983168652818601935061276f565b61274585612ec0565b60005b8381101561276757815481890152600182019150602081019050612748565b838801955050505b50505092915050565b6000612785603283612f07565b9150612790826132aa565b604082019050919050565b60006127a8601383612f07565b91506127b3826132f9565b602082019050919050565b60006127cb602683612f07565b91506127d682613322565b604082019050919050565b60006127ee602583612f07565b91506127f982613371565b604082019050919050565b6000612811601c83612f07565b915061281c826133c0565b602082019050919050565b6000612834601483612f07565b915061283f826133e9565b602082019050919050565b6000612857601083612f07565b915061286282613412565b602082019050919050565b600061287a602483612f07565b91506128858261343b565b604082019050919050565b600061289d601983612f07565b91506128a88261348a565b602082019050919050565b60006128c0602c83612f07565b91506128cb826134b3565b604082019050919050565b60006128e3600883612f07565b91506128ee82613502565b602082019050919050565b6000612906603883612f07565b91506129118261352b565b604082019050919050565b6000612929602a83612f07565b91506129348261357a565b604082019050919050565b600061294c602983612f07565b9150612957826135c9565b604082019050919050565b600061296f602083612f07565b915061297a82613618565b602082019050919050565b6000612992601d83612f07565b915061299d82613641565b602082019050919050565b60006129b5602c83612f07565b91506129c08261366a565b604082019050919050565b60006129d8600583612f18565b91506129e3826136b9565b600582019050919050565b60006129fb602083612f07565b9150612a06826136e2565b602082019050919050565b6000612a1e602183612f07565b9150612a298261370b565b604082019050919050565b6000612a41600083612efc565b9150612a4c8261375a565b600082019050919050565b6000612a64603183612f07565b9150612a6f8261375d565b604082019050919050565b6000612a87600f83612f07565b9150612a92826137ac565b602082019050919050565b612aa6816130b4565b82525050565b6000612ab882856126f9565b9150612ac482846126c8565b9150612acf826129cb565b91508190509392505050565b6000612ae682612a34565b9150819050919050565b6000602082019050612b056000830184612638565b92915050565b6000602082019050612b206000830184612629565b92915050565b6000608082019050612b3b6000830187612638565b612b486020830186612638565b612b556040830185612a9d565b8181036060830152612b678184612656565b905095945050505050565b6000602082019050612b876000830184612647565b92915050565b60006020820190508181036000830152612ba7818461268f565b905092915050565b60006020820190508181036000830152612bc881612778565b9050919050565b60006020820190508181036000830152612be88161279b565b9050919050565b60006020820190508181036000830152612c08816127be565b9050919050565b60006020820190508181036000830152612c28816127e1565b9050919050565b60006020820190508181036000830152612c4881612804565b9050919050565b60006020820190508181036000830152612c6881612827565b9050919050565b60006020820190508181036000830152612c888161284a565b9050919050565b60006020820190508181036000830152612ca88161286d565b9050919050565b60006020820190508181036000830152612cc881612890565b9050919050565b60006020820190508181036000830152612ce8816128b3565b9050919050565b60006020820190508181036000830152612d08816128d6565b9050919050565b60006020820190508181036000830152612d28816128f9565b9050919050565b60006020820190508181036000830152612d488161291c565b9050919050565b60006020820190508181036000830152612d688161293f565b9050919050565b60006020820190508181036000830152612d8881612962565b9050919050565b60006020820190508181036000830152612da881612985565b9050919050565b60006020820190508181036000830152612dc8816129a8565b9050919050565b60006020820190508181036000830152612de8816129ee565b9050919050565b60006020820190508181036000830152612e0881612a11565b9050919050565b60006020820190508181036000830152612e2881612a57565b9050919050565b60006020820190508181036000830152612e4881612a7a565b9050919050565b6000602082019050612e646000830184612a9d565b92915050565b6000612e74612e85565b9050612e808282613132565b919050565b6000604051905090565b600067ffffffffffffffff821115612eaa57612ea961326a565b5b612eb382613299565b9050602081019050919050565b60008190508160005260206000209050919050565b600081519050919050565b600081519050919050565b600082825260208201905092915050565b600081905092915050565b600082825260208201905092915050565b600081905092915050565b6000612f2e826130b4565b9150612f39836130b4565b9250827fffffffffffffffffffffffffffffffffffffffffffffffffffffffffffffffff03821115612f6e57612f6d6131dd565b5b828201905092915050565b6000612f84826130b4565b9150612f8f836130b4565b925082612f9f57612f9e61320c565b5b828204905092915050565b6000612fb5826130b4565b9150612fc0836130b4565b9250817fffffffffffffffffffffffffffffffffffffffffffffffffffffffffffffffff0483118215151615612ff957612ff86131dd565b5b828202905092915050565b600061300f826130b4565b915061301a836130b4565b92508282101561302d5761302c6131dd565b5b828203905092915050565b600061304382613094565b9050919050565b600061305582613094565b9050919050565b60008115159050919050565b60007fffffffff0000000000000000000000000000000000000000000000000000000082169050919050565b600073ffffffffffffffffffffffffffffffffffffffff82169050919050565b6000819050919050565b82818337600083830152505050565b60005b838110156130eb5780820151818401526020810190506130d0565b838111156130fa576000848401525b50505050565b6000600282049050600182168061311857607f821691505b6020821081141561312c5761312b61323b565b5b50919050565b61313b82613299565b810181811067ffffffffffffffff8211171561315a5761315961326a565b5b80604052505050565b600061316e826130b4565b91507fffffffffffffffffffffffffffffffffffffffffffffffffffffffffffffffff8214156131a1576131a06131dd565b5b600182019050919050565b60006131b7826130b4565b91506131c2836130b4565b9250826131d2576131d161320c565b5b828206905092915050565b7f4e487b7100000000000000000000000000000000000000000000000000000000600052601160045260246000fd5b7f4e487b7100000000000000000000000000000000000000000000000000000000600052601260045260246000fd5b7f4e487b7100000000000000000000000000000000000000000000000000000000600052602260045260246000fd5b7f4e487b7100000000000000000000000000000000000000000000000000000000600052604160045260246000fd5b6000601f19601f8301169050919050565b7f4552433732313a207472616e7366657220746f206e6f6e20455243373231526560008201527f63656976657220696d706c656d656e7465720000000000000000000000000000602082015250565b7f6d696e74696e67206e6f7420656e61626c656400000000000000000000000000600082015250565b7f4f776e61626c653a206e6577206f776e657220697320746865207a65726f206160008201527f6464726573730000000000000000000000000000000000000000000000000000602082015250565b7f4552433732313a207472616e736665722066726f6d20696e636f72726563742060008201527f6f776e6572000000000000000000000000000000000000000000000000000000602082015250565b7f4552433732313a20746f6b656e20616c7265616479206d696e74656400000000600082015250565b7f546f6b656e20646f65736e277420657869737421000000000000000000000000600082015250565b7f776f726e67206d696e742076616c756500000000000000000000000000000000600082015250565b7f4552433732313a207472616e7366657220746f20746865207a65726f2061646460008201527f7265737300000000000000000000000000000000000000000000000000000000602082015250565b7f4552433732313a20617070726f766520746f2063616c6c657200000000000000600082015250565b7f4552433732313a206f70657261746f7220717565727920666f72206e6f6e657860008201527f697374656e7420746f6b656e0000000000000000000000000000000000000000602082015250565b7f736f6c64206f7574000000000000000000000000000000000000000000000000600082015250565b7f4552433732313a20617070726f76652063616c6c6572206973206e6f74206f7760008201527f6e6572206e6f7220617070726f76656420666f7220616c6c0000000000000000602082015250565b7f4552433732313a2062616c616e636520717565727920666f7220746865207a6560008201527f726f206164647265737300000000000000000000000000000000000000000000602082015250565b7f4552433732313a206f776e657220717565727920666f72206e6f6e657869737460008201527f656e7420746f6b656e0000000000000000000000000000000000000000000000602082015250565b7f4552433732313a206d696e7420746f20746865207a65726f2061646472657373600082015250565b7f6578636565646564206d6178206d696e7473207065722077616c6c6574000000600082015250565b7f4552433732313a20617070726f76656420717565727920666f72206e6f6e657860008201527f697374656e7420746f6b656e0000000000000000000000000000000000000000602082015250565b7f2e6a736f6e000000000000000000000000000000000000000000000000000000600082015250565b7f4f776e61626c653a2063616c6c6572206973206e6f7420746865206f776e6572600082015250565b7f4552433732313a20617070726f76616c20746f2063757272656e74206f776e6560008201527f7200000000000000000000000000000000000000000000000000000000000000602082015250565b50565b7f4552433732313a207472616e736665722063616c6c6572206973206e6f74206f60008201527f776e6572206e6f7220617070726f766564000000000000000000000000000000602082015250565b7f7769746864726177206661696c65640000000000000000000000000000000000600082015250565b6137de81613038565b81146137e957600080fd5b50565b6137f58161305c565b811461380057600080fd5b50565b61380c81613068565b811461381757600080fd5b50565b613823816130b4565b811461382e57600080fd5b5056fea2646970667358221220a616be738f94a14202c2e2310cb6d4bc4edb64d406b9ed1f8781047d94c5af9264736f6c63430008040033",
  "linkReferences": {},
  "deployedLinkReferences": {}
}